:020000040800F2
:10000000B0070020C10100085B510008791F0008FB
:100010005951000817050008215800080000000089
:100020000000000000000000000000004552000831
:10003000A5050008000000005D51000847520008B7
:10004000DB010008DB010008DB010008DB01000820
:10005000DB010008DB010008DB010008DB01000810
:10006000DB010008A7050008DB010008DB01000830
:10007000DB010008DB010008DB010008DB010008F0
:10008000DB010008DB010008DB010008DB010008E0
:10009000DB010008DB010008DB010008DB010008D0
:1000A000DB010008DB010008DB010008DB010008C0
:1000B00005530008DB010008DB010008DB01000834
:1000C000DB010008DB010008DB010008DB010008A0
:1000D000DB01000815580008DB010008DB010008FF
:1000E000DB010008DB010008DB010008DB01000880
:1000F000DB010008DB010008DB010008DB01000870
:10010000DB010008DB010008DB010008DB0100085F
:10011000DB010008DB010008DB010008DB0100084F
:10012000DB010008DB010008DB010008DB0100083F
:10013000DB010008DB010008DB010008DB0100082F
:10014000DB010008DB010008DB010008DB0100081F
:10015000DB010008DB010008DB010008DB0100080F
:10016000DB010008DB010008DB010008DB010008FF
:10017000DB010008DB010008DB01000800000000D3
:10018000DB010008DB010008DB010008DB010008DF
:10019000DB010008DB010008DB010008DB010008CF
:1001A000DB010008DB010008DB010008DFF80CD0F0
:1001B00000F082F900480047915D0008B007002078
:1001C0000648804706480047FEE7FEE7FEE7FEE7F1
:1001D000FEE7FEE7FEE7FEE7FEE7FEE7E95200087E
:1001E000AD0100082DE9F05F0546002092469B46D0
:1001F00088460646814640241BE02846414647463D
:10020000224600F0EBF853465A46C01A914110D3EB
:1002100011461846224600F0D2F82D1A67EB010865
:100220004F4622460120002100F0C9F817EB0009D3
:100230004E41201EA4F10104DFDC484631462A4627
:100240004346BDE8F09F40EA01039B0703D009E065
:1002500008C9121F08C0042AFAD203E011F8013BB2
:1002600000F8013B521EF9D27047D2B201E000F80B
:10027000012B491EFBD270470022F6E710B513464A
:100280000A4604461946FFF7F0FF204610BD2DE947
:10029000FE4F81EA030404F0004421F00041009481
:1002A0004FF0000B23F0004350EA01045ED052EA05
:1002B00003045BD0C3F30A54C1F30A552C44A4F2DF
:1002C000F3340194A0FB0254C1F3130141F48011F3
:1002D000C3F3130343F4801301FB024400FB034EFA
:1002E000840A970A44EA815447EA8357A4FB0768C3
:1002F00002958D0A05FB07854FEA932C04FB0C54ED
:100300002705029D4FEA065847EA1637B5EB080560
:100310006EEB070C870E920E47EA811742EA8312B2
:10032000A7FB0201B6EB0B0164EB00042B0D43EAC3
:100330000C335E1844EB1C50DA465146E7FB0201D1
:10034000C5F313044FEA0B3343EA14534FEA043264
:10035000019C43EA0603A4F10C040294009CCDE93D
:1003600000B400F05AF803B0BDE8F08F0020014659
:10037000F9E70EB540F2334102910021CDE90011B9
:100380000A460B4600F049F803B000BDC1F30A521B
:1003900010B5C1F3130140F2FF3341F480119A42CA
:1003A00001DA002010BD40F233439A42A2F23342F8
:1003B00003DC524200F012F810BD904010BD202A1C
:1003C00004DB203A00FA02F1002070479140C2F1AC
:1003D000200320FA03F3194390407047202A04DBDE
:1003E000203A21FA02F00021704721FA02F3D040AE
:1003F000C2F12002914008431946704710B5141EFF
:1004000073F1000408DA401C41F1000192185B41CD
:100410001A4301D120F0010010BD2DE9F04D9246A4
:100420009B4611B1B1FA81F202E0B0FA80F22032BB
:100430009046FFF7C4FF04460F4640EA0A0041EA2F
:100440000B0153465A46084313D0114653EA0100A4
:1004500019D0C8F140025046FFF7C0FF05460E46CE
:10046000504659464246FFF7AAFF084305D00120EF
:1004700004E020463946BDE8F08D0020054346EAF9
:10048000E0762C4337430A986305E40AA0EB0800A2
:100490000022FD0A44EA47540A3002D500200146F2
:1004A000E9E7010510196941DDE9084500196941CD
:1004B000BDE8F04DA2E70000064C074D06E0E068FD
:1004C00040F0010394E8070098471034AC42F6D39B
:1004D000FFF770FE78A6000898A6000830B58C18C3
:1004E00010F8012B12F00F0301D110F8013B120993
:1004F00006D110F8012B03E010F8015B01F8015B55
:100500005B1EF9D101E001F8013B521EFBD1A14273
:10051000E6D3002030BDFEE72DE9FF5F1D460C4607
:100520008946580700D0012000EBD50010FB05F0EC
:1005300000F0FF0A4FF00008DFF864B02CE0102D47
:100540002CD10298164900EBC000083101EB800164
:10055000002611F80870380602D5DBF8002001E00B
:10056000DBF804202146009801F0A6FD7806641C03
:10057000070EE4B2A4EB0900A84205D100984C464E
:10058000401CC0B2009003E0761CF6B2082EE2D305
:1005900008F1010000F0FF08D045D0D3BDE8FF9F6F
:1005A000140000207047082000F02CB972B6FEE756
:1005B00070B5B3F5804F05D06FF0704140F8221050
:1005C000002070BD50F82240084B8E891C40D1E9B4
:1005D000003543EA05138D6889692D0245EA064511
:1005E0002B430B43234340F82230E9E70000F0CFD0
:1005F000F0B50C6850F82430174A1340D1E90125B2
:10060000D1E903672A433E4332434E6932438E6940
:100610003243CE6932430E6A32434E6A32438E6AA7
:100620003243CE6A3243CE6B32430E6B32434E6B53
:1006300032431A43082D01D142F0400240F82420F1
:100640004A6BB2F5801F05D1096819B1016841F400
:10065000801101600020F0BD8000E0FFF0B500EBEC
:100660008204626802F04045D1E9002342EA0312A5
:100670008B688E891B0243EA06431A430E8A0D4B90
:1006800003EB065632430E7D5F0107EB06663243ED
:100690008E6932432A4362600268D20207D54268FB
:1006A000098A22F4700203EB0151114341600020DA
:1006B000F0BD00000000F0FF30B5D1E901231A437E
:1006C000D1E903352B431A434B690C681A438B69F4
:1006D0001A43D1E90735012C496A046807D01A4347
:1006E0002A436FF30E040A43224302600AE024F413
:1006F000F8442B4321430B43416803606FF30E0121
:100700000A434260002030BD426942EA4101416132
:1007100000207047F8B514460546D1E900021043A1
:100720008A686FF01F03C96803EB421242EA412155
:1007300008430090286100F06DF9064609E0601C4E
:1007400007D024B100F066F9801BA04201D9032034
:10075000F8BDA8698006F2D40020F8BDF0B56FF0AE
:100760000F05D1E9003405EB04145B1E23432E0171
:100770008C682F0306EB042423434FEA054C0C8AB4
:100780008E8ACD68097E4FF07F4E07EB04440CEB58
:1007900006560EEB0161012A0CD082683F1107EB6F
:1007A00005352B432343334302F070420B4313437D
:1007B00083600FE08768084A17402A03A2F5805239
:1007C0003243C5683A43234305F070450B432B433E
:1007D0008260C3600020F0BDFF0F0FFF90F835105E
:1007E000022903D08021416501207047052180F84E
:1007F00035100068016821F0010101600020704798
:1008000070470000044910B50A68024202D008602F
:10081000FFF7F6FF10BD0000143C01402DE9F84F32
:1008200000224FF0010803254FF00F0E0B6808FA65
:1008300002F42340A3426ED14E68012E05D0022E51
:1008400003D0112E01D0122E12D186684FEA420C2D
:1008500005FA0CF7BE43CF6807FA0CF737438760F9
:100860004668A6430C79C4F30014944034434460B2
:10087000C668570005FA07FC8C6826EA0C06BC40DF
:100880003443C4604C68022C01D0122C13D1D4081C
:1008900000EB8404A346D4F8209054074FEAD46AAE
:1008A0000EFA0AF629EA06090E6906FA0AF646EA77
:1008B0000906CBF8206004680E7924EA0C0406F0DF
:1008C0000306BE40264306604C68E4006FD53B4CEF
:1008D000266846F480462660246822F0030604F465
:1008E00080440094364C3444A446D4F80848960713
:1008F000360F0EFA06F7BC43324FB84201D100273B
:100900002EE0314FB84201D1012729E02F4FB842E4
:1009100002D1022724E04AE02D4FB84201D103273B
:100920001EE02C4FB84201D1042719E02A4FB842EB
:1009300001D1052714E0294FB84201D106270FE065
:10094000274FB84201D107270AE0264FB84201D10C
:10095000082705E0244FB84201D1092700E00A2703
:10096000B7402743CCF80878204E34684F689C4342
:10097000FF0300D51C4334601C4E361D34684F689D
:100980009C43BF0300D51C433460184E08363468BE
:100990004F689C43FF0200D51C433460134E0C3655
:1009A00034684F689C43BF0200D51C433460521C1E
:1009B000102AFFF43BAFBDE8F88F00004438024036
:1009C00000300140000002400004024000080240E4
:1009D000000C0240001002400014024000180240C7
:1009E000001C02400020024000240240003C014064
:1009F0000069084000D001207047426931EA0202D4
:100A000000D10904816170470AB18161704709040E
:100A1000FBE70000014880687047000000000020EC
:100A2000024881680278114481607047000000200C
:100A30000B4810B5016841F400710160016841F490
:100A400080610160016841F480710160032000F061
:100A5000E1F9002000F006F800F096F9002010BD42
:100A6000003C024070B50D4D04464FF47A71287871
:100A7000B1FBF0F00A490968B1FBF0F000F006FFA5
:100A800048B9102C07D200222146501E00F0A2F9CE
:100A900000206C6070BD012070BD000000000020CF
:100AA0000C0000202DE9F041044690F8A000164605
:100AB0000F4601281DD0012584F8A050022084F89B
:100AC000A10006EB860000EBC60004EB8000342298
:100AD0003830FFF7B8FB32463946204604F0B6F905
:100AE0002068456284F8A150002084F8A000BDE889
:100AF000F0810220FBE7000070B5040004D094F8F8
:100B0000A100002510B106E0012070BD84F8A050BE
:100B1000204600F06BF8022084F8A100206881696B
:100B200021F070418161D4E901010843D4E9031245
:100B30001143084321688A691043886121688A68E3
:100B4000294802408A60A18A0A0421688B68A66944
:100B5000334313438B602168CA680240CA60A18B8B
:100B60000B042168CA68266A32431A43CA602168A6
:100B70000A6902400A61A18C22680B041169A66A05
:100B800031431943116121684A6902404A61A08DCD
:100B9000010420684269236B1A430A43426194F8B6
:100BA00035002168020294F83600CB6A03F07F43D7
:100BB000CB622168CB6A94F8346042EA0040334348
:100BC0000343CB622068416B41F00601416320681A
:100BD000816941F001018161C4F8A450012084F8C9
:100BE000A100002070BD000000F800F030B53648CC
:100BF00087B00025016841F080610160006800F065
:100C00008060059030481438016841F400010160AB
:100C1000016801F400010591016841F002010160E1
:100C2000016801F002010591016841F020010160B5
:100C3000016801F020010591016841F04001016067
:100C4000016801F040010591016841F080010160F7
:100C5000016801F080010591016841F48071016033
:100C60000068032400F4807005902020009001208B
:100C7000CDE90204019069461448FFF7CFFD4FF417
:100C8000806000900220CDE901050E20CDE90340EF
:100C900069460F48FFF7C2FD4FF40C6000906946AB
:100CA0000C48FFF7BBFD4FF47E40009069460A48B0
:100CB000FFF7B4FD40F2F760009069460748FFF780
:100CC000ADFD07B030BD00004438024000040240D2
:100CD0000014024000180240001C024000200240A4
:100CE00070B5044690F8A0000E46012820D00125DA
:100CF00084F8A050022084F8A10003EB830000EBED
:100D0000C30004EB800141F8386F886A3044C1E9C0
:100D10000102C86A1044C8601A46204604F096F8DA
:100D20002068456284F8A150002084F8A00070BDBE
:100D3000022070BD70B5044690F8A0000E46012850
:100D400020D0012584F8A050022084F8A10003EBF4
:100D5000830000EBC30004EB800151F8380F3044EE
:100D6000486088681044C860C1E90A621A46204693
:100D700004F06CF82068456284F8A150002084F8E3
:100D8000A00070BD022070BD0A4808B5016841F49A
:100D900080410160006800F4804000900548001F19
:100DA000016841F080510160006800F080500090BF
:100DB00008BD000044380240002809DB00F01F0293
:100DC000012191404009800000F1E020C0F80011AD
:100DD00070470000F0B40E4B1B680C46C3F30223AF
:100DE000C3F10705042D00D90425191D072901D2D7
:100DF000002300E0DB1E012606FA05F1491E214012
:100E000099409E40761E16403143F0BC04F02EBD42
:100E10000CED00E0064900F0070208684FF6FF03FA
:100E2000184040EA0220034A10430860704700005F
:100E30000CED00E00000FA052DE9F84317480168C1
:100E400041F0805101600068154F00F0805001268C
:100E500000903E64FFF7DEFD05464FF47A78114CB2
:100E600005E000BFFFF7D6FD401B40450DD8606888
:100E7000C003F7D57E64FFF7CDFD0546464607E083
:100E8000FFF7C8FD401BB04202D90320BDE8F8833C
:100E900060688003F4D50020F8E700004038024085
:100EA00000000E42007000402DE9F84F0446006833
:100EB000DFF824A2894F8A4DC1074FF001084FF097
:100EC000000603D1810701D4400648D5CAF86860FE
:100ED000FFF7A0FD814605E0FFF79CFDA0EB0900B0
:100EE00002287DD828680001F6D42078C1077D4803
:100EF00005D06168227A890141EA02710160217896
:100F0000890711D501686268237B9201C1F30271E0
:100F100042EA036242EA017101603968E26921F044
:100F20001F01521E114339602178490608D56168B6
:100F3000227B890141EA0261227A41EA0271016061
:100F4000CAF86880FFF766FD814605E0FFF762FD9D
:100F5000A0EB0900022843D828680001F6D52068D4
:100F6000410701D400074ED5CAF87060FFF752FD63
:100F7000814605E0FFF74EFDA0EB090002282FD8BF
:100F80002868C0438000F5D520784107564814D51D
:100F900001682269237D9201C1F3027142EA036272
:100FA00042EA017101603968226A6FF0FF0321F49F
:100FB000F85103EB0222114339602178090712D559
:100FC00001682269C1F30361920142EA0161227E54
:100FD00041EA027101603868616A20F4403000E043
:100FE00051E008433860CAF87080FFF713FD0746E8
:100FF00005E000BFFFF70EFDC01B022843D828689C
:10100000C0438000F6D42078800653D53448403061
:10101000016841F0805101600068344D00F080505B
:101020000090286840F480702860FFF7F3FC0746C2
:1010300005E000BFFFF7EEFCC01B022823D828689C
:10104000C005F7D5274D143D286810F4407020D016
:10105000218D01F4407181421BD0286820F4407139
:101060002348C0F80080066029602868C00710D0B7
:10107000FFF7D0FC064641F2883707E0FFF7CAFCCD
:10108000801BB84202D90320BDE8F88F286880078A
:10109000F4D5A16A1248C1F301220830032A13D003
:1010A000016821F4F81101602868218DC1F30B015A
:1010B000084328602078C00604D50E4994F82C0017
:1010C000C1F8E0010020DFE702680B4B22F4F812C0
:1010D00019400A430260E7E7000047428C380240AB
:1010E00000380240843802408838024000700040D6
:1010F000400E474200104742FFFCFF0F2DE9F0472A
:101100000E46050065D0DFF81481D8F80000F7B26C
:1011100000F00F00B04207D288F80070D8F8000045
:1011200000F00F00B04254D128683D4C810712D521
:10113000400703D5206840F4E0502060287800077D
:1011400003D5206840F4604020602068A96820F042
:10115000F000084320602878C0072DD03049686827
:101160000839012812D0022813D0032811D00968A9
:10117000890700292DDA216821F00301014321604C
:10118000FFF748FC814641F2883A0EE0096889037E
:10119000EFE709688901ECE7FFF73CFCA0EB0901E8
:1011A000514502D90320BDE8F0872068696800F046
:1011B0000C00B0EB810FEFD1D8F80010404601F0E1
:1011C0000F01B14207D90770006800F00F00B0426C
:1011D00001D00120E7E72878400705D52068E968B5
:1011E00020F4E050084320602878000706D52068E6
:1011F000296920F4604040EAC100206000F038F81E
:101200002168084AC1F30311515CC84006490860CF
:1012100006480068FFF726FC0020C4E7003C0240B7
:1012200008380240205F00080C0000200400002065
:101230000448054900680968044AC1F38221515CE9
:10124000C84070470C00002008380240305F00089A
:101250000448054900680968044AC1F34231515CF9
:10126000C84070470C00002008380240305F00087A
:10127000154810B5006810F00C02144813D014493A
:10128000042A0FD0082A0ED10F4C241F226823688D
:1012900002F03F025B0207D52068C0F38810A0FB74
:1012A000010106E0084610BD2168C1F38811A1FBC9
:1012B00000010023FEF796FF2168C1F30141491C9C
:1012C0004900B0FBF1F010BD083802400024F400E2
:1012D00040787D012DE9F84F04006ED02078DFF8CA
:1012E0003C93C007A9F104054AD009F10400016844
:1012F000C1F38101012908D00068C0F381000228F0
:101300000AD1D9F80000400206D52868800337D5F5
:1013100060680028E1D033E06068B0F5803F10D00D
:10132000B0F5A02F286810D020F4803028602868FD
:1013300020F4802028606068A8B1FFF76BFB0646A8
:101340000DE0286840F48030F4E740F48020286005
:10135000F7E700BFFFF75EFB801B642873D828689F
:101360008003F7D50CE0FFF755FB064605E000BF0C
:10137000FFF750FB801B6428F0D828688003F7D45F
:101380002078DFF89C8280074FF0000A3ED5A34802
:10139000001D016811F00C0F08D00068C0F3810037
:1013A00002280BD1D9F80000400207D42868800732
:1013B00016D5E068012800D112E02BE1E068B8B151
:1013C0000120C8F80000FFF725FB064605E000BF36
:1013D000FFF720FB801B0228C0D828688007F7D5BC
:1013E0002868216920F0F80040EAC10028600DE07B
:1013F000C8F800A0FFF70EFB064604E0FFF70AFB63
:10140000801B02281FD828688007F7D4207800079F
:1014100022D5824E83486169703671B10121016025
:10142000FFF7F8FA074604E0FFF7F4FAC01B0228BA
:1014300009D830688007F7D50EE0C0F800A0FFF7A4
:10144000E9FA074605E082E0FFF7E4FAC01B02284C
:101450007DD830688007F7D42078400768D5DFF85A
:10146000BCB100270BF13C0BDBF80000C0000BD433
:10147000DBF8001041F08051CBF80010DBF80000E1
:10148000012700F080500090674E3068C00510D4EE
:10149000306840F480703060FFF7BCFA009005E0DF
:1014A000FFF7B8FA0099401A022850D83068C005F2
:1014B000F6D55A4EA0686C3601280FD00528306842
:1014C00010D020F001003060306820F0040030605F
:1014D000A068B8B1FFF79EFA00900FE0306840F0C6
:1014E0000100F4E740F004003060F7E7FFF792FAFC
:1014F0000099411A41F28830814266D830688007ED
:10150000F4D50EE0FFF786FA009007E0FFF782FAC5
:101510000099411A41F28830814256D830688007DC
:10152000F4D42FB1DBF8001021F08051CBF800107B
:10153000A069C8B33949091D0968C1F381010229AD
:101540004AD00228504607D0C8F8600000E03CE0CE
:10155000FFF760FA04463BE04746C8F86000FFF733
:1015600059FA064605E000BFFFF754FA801B02282F
:101570002BD828688001F7D4D4E907010843A16A71
:101580002A4A490802EB0141626A41EA8211084392
:1015900094F82C1040EA0161C9F800100120386667
:1015A000FFF738FA044606E036E000BFFFF732FAEC
:1015B000001B022809D828688001F7D52CE000BF5D
:1015C000FFF728FA001B022802D90320BDE8F88F94
:1015D00028688001F4D41FE00128F7D0D9F8000072
:1015E000E26900F48001914214D1226A00F03F01C7
:1015F00091420FD147F6C071626A0140914209D110
:10160000A26A00F44031914204D1E16A00F07060B6
:10161000884201D00120D9E70020D7E704380240F2
:1016200000004742800E4742007000400000FFFF6C
:1016300070B50D46040003D094F82C0010B107E0FB
:10164000012070BD002084F82D00204600F012F823
:10165000022084F82C00211D2068FFF72DF8D4E922
:1016600000022946FFF77AF8012084F82C000020B8
:1016700070BD0000304800B5016887B041F001013D
:101680000160006800F0010005902B4808380168EF
:1016900041F004010160016801F004010591016855
:1016A00041F008010160016801F00801059101683D
:1016B00041F010010160016801F01001059101681D
:1016C00041F020010160016801F0200105910168ED
:1016D00041F0400101600068694600F0400005905B
:1016E0000D20009002200190012002900320039021
:1016F0000C2004901148FFF791F84CF20370009011
:1017000069460F48FFF78AF84FF6837000906946E4
:101710000C48FFF783F84FF63F00009069460A48EF
:10172000FFF77CF848F23710009069460748FFF74A
:1017300075F807B000BD00003838024000080240CC
:10174000000C024000100240001402400018024049
:1017500010B5044690F82C00022809D0022084F825
:101760002C002068FEF7D0FF012084F82C00002018
:1017700010BD000070B5044690F82C000D460228FC
:101780000DD0022084F82C002068FEF7C3FF2868E3
:10179000022805D05FF0010084F82C00002070BD05
:1017A0000520F9E770B515460E46040003D094F8FD
:1017B000490010B107E0012070BD002084F8480006
:1017C000204600F01BF804F108012068FEF710FF26
:1017D0003146A2682068FEF741FFD4E9010229469C
:1017E000236BFEF7E5FEA168206850F8212042F047
:1017F000010240F82120002070BD00001A4800B509
:10180000016887B041F001010160006800F001004B
:10181000059015480838016841F008010160016829
:1018200001F008010591016841F0100101600068B4
:10183000694600F0100005904EF2B370009002204F
:10184000019001200290032003900C20049007488F
:10185000FEF7E4FF4FF68070009069460448FEF7FB
:10186000DDFF07B000BD000038380240000C024028
:10187000001002404FF0E0210428086903D020F056
:1018800004000861704740F00400FAE710B5401EFC
:10189000B0F1807F01D3012010BD4FF0E0246061E2
:1018A0000F21601703F0E2FF0020A06107202061F4
:1018B000002010BD7047704770B590F83C20012A99
:1018C00032D0012480F83C40022280F83D20036899
:1018D0005A689D6822F070060A6832435A60134BBA
:1018E00002689A4214D0B2F1804F11D0104B9A4244
:1018F0000ED0104B9A420BD00F4B9A4208D00F4B90
:101900009A4205D00E4B9A4202D00E4B9A4204D115
:10191000496825F080031943916080F83D4000211B
:1019200080F83C10084670BD022070BD00000140E8
:101930000004004000080040000C0040000401408A
:10194000004001400018004010B5040003D094F896
:101950003D0010B107E0012010BD002084F83C00DC
:10196000204600F00DF8022084F83D00211D20687B
:1019700003F0CEFC012084F83D00002010BD0000E3
:1019800008B50068B0F1804F12D10A48016841F0F3
:10199000010101600068002200F001000090114682
:1019A0001C20FFF717FABDE808401C20FFF704BA17
:1019B00008BD00004038024070B5044690F83C0075
:1019C000012817D0012584F83C50022084F83D00FE
:1019D0002068826822F0770222F47F4282600868E1
:1019E000502830D00DDC20284DD005DC98B31028CD
:1019F0003BD148E0022070BD302844D0402834D18B
:101A000039E0602828D0702806D0B0F5805F2CD04F
:101A1000B0F5005F29D10AE0CB68D1E90121206847
:101A200003F0DAFC2068816841F0770109E0CB68B7
:101A3000D1E90121206803F0CFFC2068816841F4DE
:101A40008041816011E0CA684968206803F098FD10
:101A50005021206807E016E0CA684968206803F052
:101A6000A0FD6021206803F0C1FC84F83D500020F7
:101A700084F83C0070BDCA684968206803F080FDA6
:101A800040212068EFE7226801461046EBE77047E7
:101A900070B50446006801694FF00005C943890725
:101AA00015D4C168C943890711D4E91E0161012019
:101AB0002077206880698007204602D0FFF7E7FF83
:101AC00004E000F0C1F8204600F056F925772068C0
:101AD0000169C943490717D4C168C943490713D4E9
:101AE0006FF004010161022020772068806910F402
:101AF000407F204602D0FFF7CAFF04E000F0A4F8C0
:101B0000204600F039F9257720680169C9430907A3
:101B100016D4C168C943090712D46FF008010161E6
:101B2000042020772068C0698007204602D0FFF794
:101B3000AEFF04E000F088F8204600F01DF925779C
:101B400020680169C943C90617D4C168C943C906D9
:101B500013D46FF010010161082020772068C0695C
:101B600010F4407F204602D0FFF791FF04E000F020
:101B70006BF8204600F000F9257720680169C94319
:101B8000C90708D1C168C943C90704D1891E0161C9
:101B9000204600F0F2F820680169C943090609D41B
:101BA000C168C943090605D46FF080010161204670
:101BB000FFF780FE20680169C943490609D4C1685E
:101BC000C943490605D46FF040010161204600F089
:101BD000D5F820680169C94389060BD4C168C94397
:101BE000890607D46FF0200101612046BDE87040EE
:101BF000FFF761BE70BD000010B586B00446142129
:101C00006846FEF739FB0D492068884214D10C481C
:101C10000021026842F002020260006800F0020047
:101C20000590012000900220CDE90101039004906D
:101C300069460448FEF7F2FD06B010BD00040040FE
:101C40003038024000040240704770B5044690F8F6
:101C50003C000D4601280DD0012684F83C6002208E
:101C600084F83D0042B1042A18D0082A2AD00C2A50
:101C70004DD139E0022070BD206803F0BFFB206821
:101C8000816941F0080181612068816921F00401C6
:101C90008161206881692A69114311E0206803F09D
:101CA000DDFB2068816941F4006181612068816900
:101CB00021F480618161206881692A6941EA0221F9
:101CC000816124E0206803F0FFFB2068C16941F0D6
:101CD0000801C1612068C16921F00401C161206867
:101CE000C1692A69114311E0206803F021FC2068D2
:101CF000C16941F40061C1612068C16921F480615A
:101D0000C1612068C1692A6941EA0221C16184F880
:101D10003D60002084F83C0070BD10B5040003D085
:101D200094F83D0010B107E0012010BD002084F8B8
:101D30003C00204600F00CF8022084F83D00211DF4
:101D4000206803F0E5FA012084F83D00002010BD72
:101D500008B500680649884208D10648016841F084
:101D600002010160006800F00200009008BD000060
:101D70000004004040380240704770477047704789
:101D800070B5026804461068D168536910F00F0FEF
:101D900052D003F0010501F490762E435FD0C207C4
:101DA00005D0CA0503D5E26B42F00102E2634207A7
:101DB00005D5DA0703D0E26B42F00202E263820744
:101DC00005D5DA0703D0E26B42F00402E2630207B2
:101DD00007D501F020022A4303D0E26B42F008024B
:101DE000E263E26B002A33D0800604D5880602D570
:101DF000204603F0FEFB20684069E16BC0F38010D1
:101E0000090700D428B3204603F0E5FB20684169A8
:101E100049061AD5416921F040014161606BA0B1CA
:101E20001B490165606BFEF7D9FC002810D0606B80
:101E3000016DBDE870400847830610D58B060ED5AE
:101E40002046BDE8704003F0D4BB2046FFF797FF63
:101E500070BD2046FFF793FF0020E06370BD0306CE
:101E600006D50B0604D52046BDE8704003F0A0BCA3
:101E70004006F3D54806F1D5D168204621F040014F
:101E8000D160202184F8391000F075F870BD000091
:101E9000C755000870B5040004D094F83900002537
:101EA00010B106E0012070BD84F83850204600F0E3
:101EB00023F8242084F839002068C16821F40051F7
:101EC000C160204603F0E0FB2068016921F49041E5
:101ED00001612068416921F02A0141612068C168DF
:101EE00041F40051C160E563202084F8390084F892
:101EF0003A00002070BD000010B586B004461421E1
:101F00006846FEF7B9F918492068884229D1174870
:101F10000021026842F010020260006800F0100028
:101F2000059012481438026842F00102026000680D
:101F300000F0010005904FF4C06000900220CDE950
:101F40000101032003900720049069460848FEF72A
:101F500065FC002211462520FEF73CFF2520FEF7F8
:101F60002BFF06B010BD00000010014044380240B5
:101F70000000024070477047FEE7000070B50E4950
:101F80000E4A064608881268002422B13046BDE891
:101F9000704002F025BD4D8800214543084602F0FF
:101FA000D7FB02F00BFDB0B2054901E00880641CCC
:101FB000AC42FBD370BD0000A002002058030020FB
:101FC000000008602DE9F05F394C3A4DA071296896
:101FD00039B102F025FDE88A2080288B6080BDE8B9
:101FE000F09F33492C232A2589884FF0F00949F2C4
:101FF000413A2B2645F2105B4FF4305E4FF44877A0
:102000004FF4A07845F2103C4FF4F07258B1A4F8A8
:102010000080A4F80290514501D0614529D1238167
:102020006581A68139E0A4F80090A4F802805145AA
:1020300001D0614508D123816581A681614531D1F7
:10204000A4F8008062802DE0594508D1A4F808E08A
:102050004FF4285060814FF42C50A08106E0A1F588
:10206000C85063381ED123816681A5812280678094
:1020700018E0594508D1A4F808E04FF428506081D1
:102080004FF42C50A08106E0A1F5C850633804D16C
:1020900023816581A68127806280614502D12280EB
:1020A000A4F80280BDE8F05F002002F075BA0000DD
:1020B000A0020020580300202DE9F04104463848D2
:1020C0000E46006820B12046BDE8F04102F0BABCDF
:1020D000344D270A2846A9884089A1F513434FEAC1
:1020E0001628413B0CD0A1F5A643103B08D0A1F522
:1020F000AA43103B10D0A1F5C853633B25D048E05C
:1021000002F050FC384602F041FCE0B202F03EFC26
:10211000A88902F047FC36E002F044FC384602F0A1
:1021200035FC6889401C80B202F03CFCE0B202F051
:102130002DFCA88902F036FC404602F027FCA88955
:10214000401C80B202F02EFC20E0A97919B9298840
:10215000091B491E8CB202F025FC270A384602F002
:1021600015FCE0B202F012FC384602F00FFCE0B2BF
:1021700002F00CFCA88902F015FC404602F006FCB7
:10218000F0B202F003FC404602F000FCF0B202F0B4
:10219000FDFB054928890880881C0280BDE8F08184
:1021A00058030020A0020020FEFF07602DE9F04F39
:1021B00095B002F0EFFDFE4C4FF0010AA4F150097A
:1021C000A08049F2413B45F2103645F2105541F6E8
:1021D000631818B102F0AEFC02F08BB9F548002785
:1021E000016841F002010160006810A900F00200DE
:1021F00007902020CDE9100A0320CDE912A0EE4877
:10220000FEF70CFB4FF020414846C9F80010EB499F
:10221000C0E901171021C9F80C70C0E90471C9F8B0
:1022200018700902C9F81C70C0E909718900C0E979
:102230000B71C9F834708901C9E90E7146210B91FF
:102240000F20CDE909070F97CDE900070290D84884
:102250006A4609A906975038FFF7A4FA322003F01E
:1022600065FDD32002F09EFB02F064F9A08002F02D
:1022700061F9A08002F05EF94FF6FF7202EA0020D9
:10228000A08002F057F9A1885F460843A080B842B9
:1022900048D0D42002F086FB02F04CF9A08002F076
:1022A00049F9A08002F046F902EA0020A08002F07D
:1022B00041F9A1880843A080B04233D04FF45A407E
:1022C00002F070FB02F036F9A0804FF45B4002F0A0
:1022D00069FB02F02FF902EA0020A0804FF45C4075
:1022E00002F060FB02F026F9A1880843A080B0F557
:1022F000004F7DD0A84215D0A12002F053FB02F080
:1023000019F9A08002F016F902EA0020A08002F07C
:1023100011F9A1880843A0F5AE41A080613901D12F
:10232000A4F80480A188A6A003F07CFAA088B84293
:102330007ED1CF2002F036FB002002F027FBC12027
:1023400002F024FB302002F021FBED2002F02AFBFA
:10235000642002F01BFB032002F018FB122002F0A5
:1023600015FB812002F012FBE82002F01BFB852008
:1023700002F00CFB102002F009FB7A2002F006FBB1
:10238000CB2002F00FFB392002F000FB2C2002F0E2
:10239000FDFA002002F0FAFA342002F0F7FA0220E7
:1023A00002F0F4FAF72002F0FDFA202002F0EEFA33
:1023B000EA2002F0F7FA002002F0E8FA002002F02A
:1023C000E5FAC02002F0EEFA1B2002F0DFFAC1208D
:1023D00002F0E8FA012002F0D9FAC52002F0E2FA90
:1023E000302002F0D3FA302002F0D0FAC72000E00B
:1023F000B7E002F0D7FAB72002F0C8FA362002F0B0
:10240000D1FA482002F0C2FA3A2002F0CBFA552065
:1024100002F0BCFAB12002F0C5FA002002F0B6FAD0
:102420001A2002F0B3FAB62002F0BCFA0A2000E04B
:1024300099E002F0ABFAA22002F0A8FAF22002F032
:10244000B1FA002002F0A2FA262002F0ABFA012035
:1024500002F09CFAE02002F0A5FA0F2002F096FAB2
:102460002A2002F093FA282002F090FA082002F0C5
:102470008DFA0E2002F08AFA082002F087FA542022
:1024800002F084FAA92002F081FA432002F07EFAD9
:102490000A2002F07BFA0F2002F078FA002002F006
:1024A00075FA002002F072FA002002F06FFA0020A4
:1024B00002F06CFAE12002F075FA002002F066FAF0
:1024C000152002F063FA172002F060FA072002F0EC
:1024D0005DFA112002F05AFA062002F057FA2B207A
:1024E00002F054FA562002F051FA3C2002F04EFA63
:1024F000052002F04BFA102002F048FA0F2002F0FB
:1025000045FA3F2002F042FA3F2002F03FFA0F2046
:1025100002F03CFA2B2002F045FA002002F036FAD5
:10252000002002F033FA012002F030FA3F2002F0DE
:102530002DFA2A2002F036FA002002F027FA0020B5
:1025400002F024FA002002F021FAEF2002F01EFA35
:10255000112002F027FA782003F0E8FB292001F08F
:102560000BBFA580DEE6B0427ED1ED2002F01AFA64
:10257000012002F00BFAFE2002F008FAEE2002F031
:1025800011FADE2002F002FA212002F0FFF9F12018
:1025900002F008FA012002F0F9F9DF2002F002FA55
:1025A000102002F0F3F9C42002F0FCF98F200FE0B4
:1025B000A00200203038024000040240040100A0C4
:1025C000204C43442049443A25780D0A000000007D
:1025D00002F0DCF9C62002F0E5F9002002F0D6F99D
:1025E000E22002F0D3F9E22002F0D0F9E22002F07A
:1025F000CDF9BF2002F0D6F9AA2002F0C7F9B02029
:1026000002F0D0F90D2002F0C1F9002002F0BEF96D
:102610000D2002F0BBF9002002F0B8F9112002F001
:10262000B5F9002002F0B2F9192002F0AFF900204C
:1026300002F0ACF9212002F0A9F9002002F0A6F97D
:102640002D2002F0A3F9002002F0A0F93D2002F0B5
:102650009DF9002002F09AF95D2002F097F9002020
:1026600002F094F95D2000E0FEE302F08FF9002013
:1026700002F08CF9B12002F095F9802002F086F981
:10268000002002F083F98B2002F080F9002002F094
:102690007DF9962002F07AF9002002F077F9B22055
:1026A00002F080F9002002F071F9002002F06EF9CA
:1026B000022002F06BF9002002F068F9032002F01A
:1026C00065F9002002F062F9B32002F06BF90020F6
:1026D00002F05CF9002002F059F9002002F056F9EE
:1026E000002002F053F9002002F050F9002002F01F
:1026F0004DF9002002F04AF9002002F047F90020CD
:1027000002F044F9002002F041F9002002F03EF905
:10271000002002F03BF9002002F038F9002002F01E
:1027200035F9002002F032F9002002F02FF90020E4
:1027300002F02CF9002002F029F9002002F026F91D
:10274000002002F023F9002002F020F9002002F01E
:102750001DF9002002F01AF9002002F017F9B42048
:1027600002F020F98B2002F011F9002002F00EF99E
:10277000962002F00BF9002002F008F9A12002F0E7
:1027800005F9002002F002F9B52002F00BF9022051
:1027900002F0FCF8002002F0F9F8032002F0F6F84D
:1027A000002002F0F3F8042002F0F0F8002002F01C
:1027B000EDF8B62002F0F6F8002002F0E7F800206D
:1027C00002F0E4F8B72002F0EDF8002002F0DEF8A5
:1027D000002002F0DBF83F2002F0D8F8002002F0E1
:1027E000D5F85E2002F0D2F8002002F0CFF8642085
:1027F00002F0CCF8002002F0C9F88C2002F0C6F8F4
:10280000002002F0C3F8AC2002F0C0F8002002F073
:10281000BDF8DC2002F0BAF8002002F0B7F8702012
:1028200002F0B4F8002002F0B1F8902002F0AEF807
:10283000002002F0ABF8EB2002F0A8F8002002F034
:10284000A5F8DC2002F0A2F8002002F09FF8B820E2
:1028500002F0A8F8002002F099F8002002F096F8A3
:10286000002002F093F8002002F090F8002002F01F
:102870008DF8002002F08AF8002002F087F800208E
:1028800002F084F8BA2002F08DF8242002F07EF8DD
:10289000002002F07BF8002002F078F8002002F01F
:1028A00075F8C12002F07EF8202002F06FF80020B9
:1028B00002F06CF8542002F069F8002002F066F88B
:1028C000FF2002F063F8002002F060F8C22002F05E
:1028D00069F80A2002F05AF8002002F057F80420A4
:1028E00002F054F8002002F051F8C32002F05AF828
:1028F0003C2002F04BF8002002F048F83A2002F0A9
:1029000045F8002002F042F8392002F03FF800209C
:1029100002F03CF8372002F039F8002002F036F8D7
:102920003C2002F033F8002002F030F8362002F0AC
:102930002DF8002002F02AF8322002F027F80020BB
:1029400002F024F82F2002F021F8002002F01EF8F7
:102950002C2002F01BF8002002F018F8292002F0C9
:1029600015F8002002F012F8262002F00FF80020DF
:1029700002F00CF8242002F009F8002002F006F81A
:10298000242002F003F8002002F000F8232001F0D8
:10299000FDFF002001F0FAFF3C2001F0F7FF0020CE
:1029A00001F0F4FF362001F0F1FF002001F0EEFF0E
:1029B000322001F0EBFF002001F0E8FF2F2001F0B2
:1029C000E5FF002001F0E2FF2C2001F0DFFF0020F6
:1029D00001F0DCFF292001F0D9FF002001F0D6FF33
:1029E000262001F0D3FF002001F0D0FF242001F0C9
:1029F000CDFF002001F0CAFF242001F0C7FF002016
:102A000001F0C4FF232001F0C1FF002001F0BEFF50
:102A1000C42001F0C7FF622001F0B8FF002001F0E0
:102A2000B5FF052001F0B2FF002001F0AFFF8420C8
:102A300001F0ACFF002001F0A9FFF02001F0A6FF9B
:102A4000002001F0A3FF182001F0A0FF002001F0FA
:102A50009DFFA42001F09AFF002001F097FF1820AD
:102A600001F094FF002001F091FF502001F08EFF53
:102A7000002001F08BFF0C2001F088FF002001F006
:102A800085FF172001F082FF002001F07FFF9520D5
:102A900001F07CFF002001F079FFF32001F076FFC8
:102AA000002001F073FFE62001F070FF002001F02C
:102AB0006DFFC52001F076FF322001F067FF002096
:102AC00001F064FF442001F061FF002001F05EFF8F
:102AD000652001F05BFF002001F058FF762001F037
:102AE00055FF002001F052FF882001F04FFF002029
:102AF00001F04CFFC62001F055FF202001F046FFF9
:102B0000002001F043FF172001F040FF002001F0FA
:102B10003DFF012001F03AFF002001F037FFC72000
:102B200001F040FF002001F031FF002001F02EFFF6
:102B3000002001F02BFF002001F028FFC82001F049
:102B400031FF002001F022FF002001F01FFF0020D4
:102B500001F01CFF002001F019FFC92001F022FF45
:102B6000002001F013FF002001F010FF002001F011
:102B70000DFF002001F00AFF002001F007FF0020F8
:102B800001F004FF002001F001FF002001F0FEFE33
:102B9000002001F0FBFE002001F0F8FE002001F013
:102BA000F5FE002001F0F2FE002001F0EFFE002013
:102BB00001F0ECFE002001F0E9FE002001F0E6FE4D
:102BC000E02001F0EFFE162001F0E0FE002001F011
:102BD000DDFE1C2001F0DAFE002001F0D7FE2120EE
:102BE00001F0D4FE002001F0D1FE362001F0CEFE2F
:102BF000002001F0CBFE462001F0C8FE002001F0CD
:102C0000C5FE522001F0C2FE002001F0BFFE64208C
:102C100001F0BCFE002001F0B9FE7A2001F0B6FE02
:102C2000002001F0B3FE8B2001F0B0FE002001F087
:102C3000ADFE992001F0AAFE002001F0A7FEA82019
:102C400001F0A4FE002001F0A1FEB92001F09EFEDB
:102C5000002001F09BFEC42001F098FE002001F04E
:102C600095FECA2001F092FE002001F08FFED220D6
:102C700001F08CFE002001F089FED92001F086FED3
:102C8000002001F083FEE02001F080FE002001F032
:102C90007DFEF32001F07AFE002001F077FEE120B6
:102CA00001F080FE162001F071FE002001F06EFEA2
:102CB0001C2001F06BFE002001F068FE222001F0D4
:102CC00065FE002001F062FE362001F05FFE00206C
:102CD00001F05CFE452001F059FE002001F056FE97
:102CE000522001F053FE002001F050FE642001F05C
:102CF0004DFE002001F04AFE7A2001F047FE002040
:102D000001F044FE8B2001F041FE002001F03EFE68
:102D1000992001F03BFE002001F038FEA82001F0D0
:102D200035FE002001F032FEB92001F02FFE002018
:102D300001F02CFEC42001F029FE002001F026FE47
:102D4000CA2001F023FE002001F020FED22001F075
:102D50001DFE002001F01AFED82001F017FE002011
:102D600001F014FEE02001F011FE002001F00EFE43
:102D7000F32001F00BFE002001F008FEE22001F03C
:102D800011FE052001F002FE002001F0FFFD0B20E6
:102D900001F0FCFD002001F0F9FD1B2001F0F6FD23
:102DA000002001F0F3FD342001F0F0FD002001F0DF
:102DB000EDFD442001F0EAFD002001F0E7FD4F2089
:102DC00001F0E4FD002001F0E1FD612001F0DEFDF5
:102DD000002001F0DBFD792001F0D8FD002001F09A
:102DE000D5FD882001F0D2FD002001F0CFFD972015
:102DF00001F0CCFD002001F0C9FDA62001F0C6FDC8
:102E0000002001F0C3FDB72001F0C0FD002001F05B
:102E1000BDFDC22001F0BAFD002001F0B7FDC720C2
:102E200001F0B4FD002001F0B1FDD12001F0AEFDB4
:102E3000002001F0ABFDD62001F0A8FD002001F03C
:102E4000A5FDDD2001F0A2FD002001F09FFDF32093
:102E500001F09CFD002001F099FDE32001F0A2FDAE
:102E6000052001F093FD00E00AE3002001F08EFD53
:102E70000A2001F08BFD002001F088FD1C2001F0EC
:102E800085FD002001F082FD332001F07FFD002050
:102E900001F07CFD442001F079FD002001F076FD79
:102EA000502001F073FD002001F070FD622001F060
:102EB0006DFD002001F06AFD782001F067FD002023
:102EC00001F064FD882001F061FD002001F05EFD4D
:102ED000972001F05BFD002001F058FDA62001F0D5
:102EE00055FD002001F052FDB72001F04FFD0020FC
:102EF00001F04CFDC22001F049FD002001F046FD2B
:102F0000C72001F043FD002001F040FDD12001F079
:102F10003DFD002001F03AFDD52001F037FD0020F5
:102F200001F034FDDD2001F031FD002001F02EFD27
:102F3000F32001F02BFD002001F028FDE42001F03A
:102F400031FD012001F022FD002001F01FFD0120D4
:102F500001F01CFD002001F019FD022001F016FD1A
:102F6000002001F013FD2A2001F010FD002001F0E7
:102F70000DFD3C2001F00AFD002001F007FD4B2073
:102F800001F004FD002001F001FD5D2001F0FEFCD8
:102F9000002001F0FBFC742001F0F8FC002001F09F
:102FA000F5FC842001F0F2FC002001F0EFFC9320FE
:102FB00001F0ECFC002001F0E9FCA22001F0E6FCAD
:102FC000002001F0E3FCB32001F0E0FC002001F060
:102FD000DDFCBE2001F0DAFC002001F0D7FCC420AB
:102FE00001F0D4FC002001F0D1FCCD2001F0CEFC9A
:102FF000002001F0CBFCD32001F0C8FC002001F040
:10300000C5FCDD2001F0C2FC002001F0BFFCF32074
:1030100001F0BCFC002001F0B9FCE52001F0C2FC8D
:10302000002001F0B3FC002001F0B0FC002001F012
:10303000ADFC002001F0AAFC022001F0A7FC00205A
:1030400001F0A4FC292001F0A1FC002001F09EFC6D
:103050003C2001F09BFC002001F098FC4B2001F08B
:1030600095FC002001F092FC5D2001F08FFC002017
:1030700001F08CFC742001F089FC002001F086FC3A
:10308000842001F083FC002001F080FC932001F0FB
:103090007DFC002001F07AFCA22001F077FC0020EA
:1030A00001F074FCB32001F071FC002001F06EFC13
:1030B000BE2001F06BFC002001F068FCC42001F090
:1030C00065FC002001F062FCCD2001F05FFC0020D7
:1030D00001F05CFCD32001F059FC002001F056FC0B
:1030E000DC2001F053FC002001F050FCF32001F043
:1030F0004DFC002001F04AFCE62001F053FC1120B9
:1031000001F044FC002001F041FC342001F03EFCC1
:10311000002001F03BFC562001F038FC002001F0BB
:1031200035FC762001F032FC002001F02FFC7720E6
:1031300001F02CFC002001F029FC662001F026FCA7
:10314000002001F023FC882001F020FC002001F089
:103150001DFC992001F01AFC002001F017FCBB2097
:1031600001F014FC002001F011FC992001F00EFC8C
:10317000002001F00BFC662001F008FC002001F0AB
:1031800005FC552001F002FC002001F0FFFB55205A
:1031900001F0FCFB002001F0F9FB452001F0F6FBFB
:1031A000002001F0F3FB432001F0F0FB002001F0D0
:1031B000EDFB442001F0EAFB002001F0E7FBE720F3
:1031C00001F0F0FB322001F0E1FB002001F0DEFB1A
:1031D000552001F0DBFB002001F0D8FB762001F048
:1031E000D5FB002001F0D2FB662001F0CFFB0020D0
:1031F00001F0CCFB672001F0C9FB002001F0C6FB09
:10320000672001F0C3FB002001F0C0FB872001F024
:10321000BDFB002001F0BAFB992001F0B7FB0020B4
:1032200001F0B4FBBB2001F0B1FB002001F0AEFBCC
:10323000992001F0ABFB002001F0A8FB772001F002
:10324000A5FB002001F0A2FB442001F09FFB002021
:1032500001F09CFB562001F099FB002001F096FB49
:10326000232001F093FB002001F090FB332001F0BC
:103270008DFB002001F08AFB452001F087FB002038
:1032800001F084FBE82001F08DFB002001F07EFBC3
:10329000002001F07BFB992001F078FB002001F079
:1032A00075FB872001F072FB002001F06FFB882086
:1032B00001F06CFB002001F069FB772001F066FB58
:1032C000002001F063FB662001F060FB002001F0AC
:1032D0005DFB882001F05AFB002001F057FBAA207B
:1032E00001F054FB002001F051FBBB2001F04EFB2C
:1032F000002001F04BFB992001F048FB002001F079
:1033000045FB662001F042FB002001F03FFB552009
:1033100001F03CFB002001F039FB552001F036FBA9
:10332000002001F033FB442001F030FB002001F0CD
:103330002DFB442001F02AFB002001F027FB552043
:1033400001F024FB002001F021FBE92001F02AFB21
:10335000AA2001F01BFB002001F018FB002001F067
:1033600015FB002001F012FB002001F01BFBAA203E
:1033700001F00CFBCF2001F015FB002001F006FB53
:10338000002001F003FB002001F000FB002001F011
:10339000FDFA002001F0FAFA002001F0F7FA00200F
:1033A00001F0F4FA002001F0F1FA002001F0EEFA49
:1033B000002001F0EBFA002001F0E8FA002001F013
:1033C000E5FA002001F0E2FA002001F0DFFA002027
:1033D00001F0DCFA002001F0D9FA002001F0D6FA61
:1033E000F02001F0DFFA002001F0D0FA502001F0C7
:1033F000CDFA002001F0CAFA002001F0C7FA00203F
:1034000001F0C4FAF32001F0CDFA002001F0BEFA79
:10341000F92001F0C7FA062001F0B8FA102001F0F7
:10342000B5FA292001F0B2FA002001F0AFFA3A20F3
:1034300001F0B8FA552001F0A9FA112001F0B2FA12
:10344000642002F073FC292001F0ACFA352001F071
:10345000A9FA002001F09AFA512001F0A3FAFF2006
:1034600001F094FA532001F09DFA2C2001F08EFA1D
:10347000552001F097FA822001F088FA2C20FDE314
:10348000A8427DD14FF470435521184601F0A0FAAF
:103490004FF20107AA21384601F09AFA5221781C0E
:1034A00001F096FA0821B81C01F092FA0121F81CEB
:1034B00001F08EFA0D214FF4304001F089FA0D2110
:1034C0004BF2010001F084FA0D214BF2020001F0F1
:1034D0007FFA34214FF4364001F07AFA34214BF26E
:1034E000016001F075FA34214BF2026001F070FACC
:1034F0000D214FF4314001F06BFA0D214BF2011018
:1035000001F066FA0D214BF2021001F061FA34214C
:103510004FF4374001F05CFA34214BF2017001F0B6
:1035200057FA34214BF2027001F052FA00214FF4A5
:10353000324001F04DFA00214BF2012001F048FA2F
:1035400000214BF2022001F043FA24214FF43840CD
:1035500001F03EFA24214BF6010001F039FA242152
:103560004BF6020001F034FA01214FF43F4001F024
:103570002FFA0F214FF4334001F02AFA0F2100E017
:10358000FEE34BF2013001F023FA0F214BF202303F
:1035900001F01EFA34214FF4394001F019FA3421B8
:1035A0004BF6011001F014FA34214BF6021001F031
:1035B0000FFA08214FF4354001F00AFA08214BF2C6
:1035C000015001F005FA08214BF2025001F000FA17
:1035D00003214FF4424001F0FBF924214FF43A401B
:1035E00001F0F6F924214BF6012001F0F1F9242134
:1035F0004BF6022001F0ECF900214FF43C4001F0C1
:10360000E7F978214BF6014001F0E2F900214BF691
:10361000024001F0DDF900214FF43D4001F0D8F9FE
:1036200078214BF6015001F0D3F900214BF60250FE
:1036300001F0CEF900214FF43E4001F0C9F96421B8
:103640004BF6016001F0C4F900214FF4514001F044
:10365000BFF933214DF2011001F0BAF900214DF20A
:10366000021001F0B5F934214DF2031001F0B0F968
:1036700000214DF2041001F0ABF93A214DF2051092
:1036800001F0A6F900214DF2061001F0A1F94A213E
:103690004DF2071001F09CF900214DF2081001F0E5
:1036A00097F95C214DF2091001F092F900214DF2D9
:1036B0000A1001F08DF981214DF20B1001F088F90B
:1036C00000214DF20C1001F083F9A6214DF20D10EE
:1036D00001F07EF900214DF20E1001F079F9E5219B
:1036E0004DF20F1001F074F901214DF2101001F0AC
:1036F0006FF913214DF2111001F06AF901214DF219
:10370000121001F065F954214DF2131001F060F927
:1037100001214DF2141001F05BF982214DF21510D8
:1037200001F056F901214DF2161001F051F9CA21AC
:103730004DF2171001F04CF902214DF2181001F072
:1037400047F900214DF2191001F042F902214DF222
:103750001A1001F03DF901214DF21B1001F038F96A
:1037600002214DF21C1001F033F934214DF21D10ED
:1037700001F02EF902214DF21E1001F029F9672106
:103780004DF21F1001F024F902214DF2201001F03A
:103790001FF984214DF2211001F01AF902214DF296
:1037A000221001F015F9A4214DF2231001F010F9B7
:1037B00002214DF2241001F00BF9B7214DF2251032
:1037C00001F006F902214DF2261001F001F9CF2196
:1037D0004DF2271001F0FCF802214DF2281001F003
:1037E000F7F8DE214DF2291001F0F2F802214DF236
:1037F0002A1001F0EDF8F2214DF22B1001F0E8F85B
:1038000002214DF22C1001F0E3F8FE214DF22D10B3
:1038100001F0DEF803214DF22E1001F0D9F810214D
:103820004DF22F1001F0D4F803214DF2301001F0C9
:10383000CFF833214DF2311001F0CAF803214DF2D7
:10384000321001F0C5F86D214DF2331001F0C0F8CF
:1038500000214FF4524001F0BBF833214DF201201A
:1038600001F0B6F800214DF2022001F0B1F8342148
:103870004DF2032001F0ACF800214DF2042001F0DC
:10388000A7F83A214DF2052001F0A2F800214DF2EF
:10389000062001F09DF84A214DF2072001F098F82A
:1038A00000214DF2082001F093F85C214DF209202F
:1038B00001F08EF800214DF20A2001F089F88121F3
:1038C0004DF20B2001F084F800214DF20C2001F0A4
:1038D0007FF8A6214DF20D2001F07AF800214DF27B
:1038E0000E2001F075F8E5214DF20F2001F070F87F
:1038F00001214DF2102001F06BF813214DF211203F
:1039000001F066F801214DF2122001F061F8542116
:103910004DF2132001F05CF801214DF2142001F06A
:1039200057F882214DF2152001F052F801214DF295
:10393000162001F04DF8CA214DF2172001F048F889
:1039400002214DF2182001F043F800214DF2192018
:1039500001F03EF802214DF21A2001F039F8012160
:103960004DF21B2001F034F802214DF21C2001F031
:103970002FF834214DF21D2001F02AF802214DF2DA
:103980001E2001F025F867214DF21F2001F020F8DC
:1039900002214DF2202001F01BF884214DF221205C
:1039A00001F016F802214DF2222001F011F8A421B5
:1039B0004DF2232001F00CF802214DF2242001F0F9
:1039C00007F8B7214DF2252001F002F802214DF24F
:1039D000262000F0FDFFCF214DF2272000F0F8FF58
:1039E00002214DF2282000F0F3FFDE214DF22920C4
:1039F00000F0EEFF02214DF22A2000F0E9FFF22153
:103A00004DF22B2000F0E4FF02214DF22C2000F0BB
:103A1000DFFFFE214DF22D2000F0DAFF03214DF2F1
:103A20002E2000F0D5FF10214DF22F2000F0D0FF06
:103A300003214DF2302000F0CBFF33214DF2312035
:103A400000F0C6FF03214DF2322000F0C1FF6D21CE
:103A50004DF2332000F0BCFF00214FF4534000F042
:103A6000B7FF33214DF2013000F0B2FF00214DF2DB
:103A7000023000F0ADFF34214DF2033000F0A8FF1A
:103A800000214DF2043000F0A3FF3A214DF2053041
:103A900000F09EFF00214DF2063000F099FF4A2110
:103AA0004DF2073000F094FF00214DF2083000F095
:103AB0008FFF5C214DF2093000F08AFF00214DF2AA
:103AC0000A3000F085FF81214DF20B3000F080FFBD
:103AD00000214DF20C3000F07BFFA6214DF20D309D
:103AE00000F076FF00214DF20E3000F071FFE5216D
:103AF0004DF20F3000F06CFF01214DF2103000F05C
:103B000067FF13214DF2113000F062FF01214DF2E9
:103B1000123000F05DFF54214DF2133000F058FFD9
:103B200001214DF2143000F053FF82214DF2153087
:103B300000F04EFF01214DF2163000F049FFCA217E
:103B40004DF2173000F044FF02214DF2183000F022
:103B50003FFF00214DF2193000F03AFF02214DF2F3
:103B60001A3000F035FF01214DF21B3000F030FF1C
:103B700002214DF21C3000F02BFF34214DF21D309C
:103B800000F026FF02214DF21E3000F021FF6721D8
:103B90004DF21F3000F01CFF02214DF2203000F0EA
:103BA00017FF84214DF2213000F012FF02214DF267
:103BB000223000F00DFFA4214DF2233000F008FF69
:103BC00002214DF2243000F003FFB7214DF22530E1
:103BD00000F0FEFE02214DF2263000F0F9FECF216A
:103BE0004DF2273000F0F4FE02214DF2283000F0B3
:103BF000EFFEDE214DF2293000F0EAFE02214DF207
:103C00002A3000F0E5FEF2214DF22B3000F0E0FE0C
:103C100002214DF22C3000F0DBFEFE214DF22D3062
:103C200000F0D6FE03214DF22E3000F0D1FE10211F
:103C30004DF22F3000F0CCFE03214DF2303000F079
:103C4000C7FE33214DF2313000F0C2FE03214DF2A8
:103C5000323000F0BDFE6D214DF2333000F0B8FE81
:103C600000214FF4544000F0B3FE33214DF20140E7
:103C700000F0AEFE00214DF2024000E07CE300F0D7
:103C8000A7FE34214DF2034000F0A2FE00214DF2C8
:103C9000044000F09DFE3A214DF2054000F098FEF0
:103CA00000214DF2064000F093FE4A214DF20740FC
:103CB00000F08EFE00214DF2084000F089FE5C21EC
:103CC0004DF2094000F084FE00214DF20A4000F060
:103CD0007FFE81214DF20B4000F07AFE00214DF273
:103CE0000C4000F075FEA6214DF20D4000F070FE74
:103CF00000214DF20E4000F06BFEE5214DF20F4029
:103D000000F066FE01214DF2104000F061FE13212B
:103D10004DF2114000F05CFE01214DF2124000F026
:103D200057FE54214DF2134000F052FE01214DF296
:103D3000144000F04DFE82214DF2154000F048FE87
:103D400001214DF2164000F043FECA214DF217400A
:103D500000F03EFE02214DF2184000F039FE002135
:103D60004DF2194000F034FE02214DF21A4000F0ED
:103D70002FFE01214DF21B4000F02AFE022100E03F
:103D8000FDE24DF21C4000F023FE34214DF21D40B7
:103D900000F01EFE02214DF21E4000F019FE6721C8
:103DA0004DF21F4000F014FE02214DF2204000F0C1
:103DB0000FFE84214DF2214000F00AFE02214DF257
:103DC000224000F005FEA4214DF2234000F000FE49
:103DD00002214DF2244000F0FBFDB7214DF22540B9
:103DE00000F0F6FD02214DF2264000F0F1FDCF215A
:103DF0004DF2274000F0ECFD02214DF2284000F08A
:103E0000E7FDDE214DF2294000F0E2FD02214DF2F6
:103E10002A4000F0DDFDF2214DF22B4000F0D8FDEC
:103E200002214DF22C4000F0D3FDFE214DF22D4039
:103E300000F0CEFD03214DF22E4000F0C9FD10210F
:103E40004DF22F4000F0C4FD03214DF2304000F050
:103E5000BFFD33214DF2314000F0BAFD03214DF298
:103E6000324000F0B5FD6D214DF2334000F0B0FD61
:103E700000214FF4554000F0ABFD33214DF20150CD
:103E800000F0A6FD00214DF2025000F0A1FD34210A
:103E90004DF2035000F09CFD00214DF2045000F063
:103EA00097FD3A214DF2055000F092FD00214DF2B0
:103EB000065000F08DFD4A214DF2075000F088FDBC
:103EC00000214DF2085000F083FD5C214DF20950B5
:103ED00000F07EFD00214DF20A5000F079FD8121B5
:103EE0004DF20B5000F074FD00214DF20C5000F02B
:103EF0006FFDA6214DF20D5000F06AFD00214DF23C
:103F00000E5000F065FDE5214DF20F5000F060FD10
:103F100001214DF2105000F05BFD13214DF21150C4
:103F200000F056FD01214DF2125000F051FD5421D8
:103F30004DF2135000F04CFD01214DF2145000F0F1
:103F400047FD82214DF2155000F042FD01214DF256
:103F5000165000F03DFDCA214DF2175000F038FD1B
:103F600002214DF2185000F033FD00214DF219509E
:103F700000F02EFD02214DF21A5000F029FD012122
:103F80004DF21B5000F024FD02214DF21C5000F0B8
:103F90001FFD34214DF21D5000F01AFD02214DF29B
:103FA0001E5000F015FD67214DF21F5000F010FD6E
:103FB00002214DF2205000F00BFD84214DF22150E2
:103FC00000F006FD02214DF2225000F001FDA42177
:103FD0004DF2235000F0FCFC02214DF2245000F081
:103FE000F7FCB7214DF2255000F0F2FC02214DF212
:103FF000265000F0EDFCCF214DF2275000F0E8FCF8
:1040000002214DF2285000F0E3FCDE214DF2295050
:1040100000F0DEFC02214DF22A5000F0D9FCF22122
:104020004DF22B5000F0D4FC02214DF22C5000F048
:10403000CFFCFE214DF22D5000F0CAFC03214DF2C1
:104040002E5000F0C5FC10214DF22F5000F0C0FCA6
:1040500003214DF2305000F0BBFC33214DF23150C2
:1040600000F0B6FC03214DF2325000F0B1FC6D219E
:104070004DF2335000F0ACFC00214FF4564000F0FC
:10408000A7FC33214DF2016000F0A2FC00214DF2AB
:10409000026000F09DFC34214DF2036000F098FCBA
:1040A00000214DF2046000F093FC3A214DF20560CE
:1040B00000F08EFC00214DF2066000F089FC4A21E0
:1040C0004DF2076000F084FC00214DF2086000F022
:1040D0007FFC5C214DF2096000F07AFC00214DF27A
:1040E0000A6000F075FC81214DF20B6000F070FC5D
:1040F00000214DF20C6000F06BFCA6214DF20D602A
:1041000000F066FC00214DF20E6000F061FCE5213C
:104110004DF20F6000F05CFC01214DF2106000F0E8
:1041200057FC13214DF2116000F052FC01214DF2B9
:10413000126000F04DFC54214DF2136000F048FC79
:1041400001214DF2146000F043FC82214DF2156014
:1041500000F03EFC01214DF2166000F039FCCA214E
:104160004DF2176000F034FC02214DF2186000F0AF
:104170002FFC00214DF2196000F02AFC02214DF2C3
:104180001A6000F025FC01214DF21B6000F020FCBC
:1041900002214DF21C6000F01BFC34214DF21D6029
:1041A00000F016FC02214DF21E6000F011FC6721A8
:1041B0004DF21F6000F00CFC02214DF2206000F077
:1041C00007FC84214DF2216000F002FC02214DF237
:1041D000226000F0FDFBA4214DF2236000F0F8FB0B
:1041E00002214DF2246000F0F3FBB7214DF225606F
:1041F00000F0EEFB02214DF2266000F0E9FBCF213A
:104200004DF2276000F0E4FB02214DF2286000F03F
:10421000DFFBDE214DF2296000F0DAFB02214DF2D6
:104220002A6000F0D5FBF2214DF22B6000F0D0FBAC
:1042300002214DF22C6000F0CBFBFE214DF22D60EF
:1042400000F0C6FB03214DF22E6000F0C1FB1021EF
:104250004DF22F6000F0BCFB03214DF2306000F006
:10426000B7FB33214DF2316000F0B2FB03214DF278
:10427000326000F0ADFB6D214DF2336000F0A8FB21
:104280005521184600F0A4FBAA21384600F0A0FBF7
:104290005221781C00F09CFB0821B81C00F098FB10
:1042A0000021F81C00F094FBCC214FF4314000F0C9
:1042B0008FFB00214BF2011000F08AFB05214FF427
:1042C000364000F085FB70214FF4374000F080FB52
:1042D00070214BF2017000F07BFB01214FF438405C
:1042E00000F076FB03214BF6010000F071FB032187
:1042F0004BF6020000F06CFB03214BF6030000F0CC
:1043000067FB02214FF43C4000F062FB00214BF6BA
:10431000014000F05DFB00214BF6024000F058FB2D
:10432000D0214FF4494000F053FB02214CF601101C
:1043300000F04EFB50214CF6021000F049FB5021DA
:104340004CF6031000F044FB50214CF6041000F032
:104350003FFB00214FF4545000F03AFB55214FF43D
:10436000685000F035FB4FF4885000F01BFB7820BC
:1043700001F0EAFC4FF4245000F014FBB9E0404592
:10438000FCD1E22000F00EFB1D2000F0FFFA02201D
:1043900000F0FCFA042000F0F9FA642001F0D4FCEB
:1043A000E02000F0FFFA012000F0F0FA0A2001F00E
:1043B000BDFCE02000F0F6FA032000F0E7FA0C2044
:1043C00001F0B4FC012000F0EDFA0A2001F0AEFC8F
:1043D000E62000F0E7FA2F2000F0D8FAFF2000F0E6
:1043E000D5FAFF2000F0D2FAB02000F0DBFA20204E
:1043F00000F0CCFA002000F0C9FA032000F0C6FA61
:1044000040F21F3000F0C2FA012000F0BFFA40F283
:10441000DF1000F0BBFA002000F0B8FAB42000F082
:10442000C1FA042000F0B2FA40F21F4000F0AEFAE8
:10443000002000F0ABFA2E2000F0A8FA002000F0D7
:10444000A5FA002000F0A2FA002000F09FFA002058
:1044500000F09CFAB62000F0A5FA022000F096FACF
:104460004FF4037000F092FA002000F08FFA17204A
:1044700000F08CFA152000F089FA002000F086FA8E
:10448000002000F083FAF02000F08CFA032000F006
:104490007DFA292000F086FAD02000F083FA00206F
:1044A00000F074FABE2000F07DFA052000F06EFAEC
:1044B000FE2000F06BFA012000F068FA002000F006
:1044C00065FA002000F062FA002000F05FFAB820E0
:1044D00000F068FA032000F059FA012000F056FAC3
:1044E000BA2000F05FFA012000F050FA0A2000F034
:1044F0002BF8A088584505D0B04203D0A84201D07F
:10450000404509D1042000900290D9E90102694692
:10451000D9F83030FCF74CF80020FDF753FD044982
:10452000C1F894A21F20FDF729FD15B0BDE8F08F5A
:1045300000804042034808B50088ADF80000BDF88F
:10454000000008BD0000086010B50246BE2000F063
:1045500029FA052000F01AFA1046FBF70AFF9FED32
:104560000C1B53EC112BFBF792FEFBF70FFF80B2F5
:1045700000F00CFA012000F009FAFF2000F006FA22
:10458000002000F003FABDE81040002000F0FEB962
:104590006666666666660440F0B56C4C002321468C
:1045A000A279898841F66316012A01D01AB11BE06D
:1045B000B14202D118E0B14216D1082814D2DFE886
:1045C00000F00406080A0C0E101206200CE007206A
:1045D0000AE0042008E0052006E0012004E00020B5
:1045E00002E0032000E00220A1F5134745F210325B
:1045F00045F21055413F05D0914203D0A94201D068
:10460000B14277D1082812D2DFE800F01104060881
:104610000A0C0E1080230AE0402308E0C02306E0C5
:10462000202304E0602302E0A02300E0E023A9426D
:1046300002D14FF4585000E03620914205D0A942F3
:1046400003D0B14201D043F00803194600F0C0F98D
:10465000A188B1420AD098062088628802D590428B
:1046600002D303E0904201D9228060806089A94290
:1046700041D100F097F9002000F088F96089401CD2
:1046800080B200F08FF9002000F080F96089801C72
:1046900080B200F087F92088401EC0F30F2000F0A0
:1046A00075F96089C01C80B200F07CF92078401E4A
:1046B000C0B200F06BF9A08900F074F9002000F09E
:1046C00065F9A089401C80B200F06CF9002000F070
:1046D0005DF9A089801C80B200F064F96088401EFA
:1046E000C0F30F2000F052F9A089C01C80B200F086
:1046F00059F922E028E000F055F9002000F046F9D1
:10470000002000F043F92088401EC0F30F2000F085
:104710003DF92078401EC0B200F038F9A08900F0C1
:1047200041F9002000F032F9002000F02FF96088F4
:10473000401EC0F30F2000F029F9A078BDE8F0403A
:10474000401EC0B200F022B9F0BD0000A00200205F
:10475000F0B53F4A0D460446060A918810462F0AD6
:104760004089A1F51343413B28D0A1F5A643103B56
:1047700024D0A1F5C853633B2FD0A1F5AA43103B29
:1047800064D100F00FF9304600F000F95089401C68
:1047900080B200F007F9E0B200F0F8F8908900F07C
:1047A00001F9384600F0F2F89089401C80B200F020
:1047B000F9F8E8B2BDE8F04000F0E8B800F0F2F82F
:1047C000304600F0E3F8E0B200F0E0F8908900F045
:1047D000E9F8384600F0DAF8EBE7917929B300F010
:1047E000E1F8304600F0D2F8E0B200F0CFF81088DF
:1047F000401EC0F30F2000F0C9F81078401EC0B270
:1048000000F0C4F8908900F0CDF8384600F0BEF80A
:10481000E8B200F0BBF85088401EC0F30F2000F053
:10482000B5F89078401EC0B2C4E71188091B491E34
:104830008CB200F0B7F8002000F0A8F8002000F0DB
:10484000A5F8200A00F0A2F8E0B2D9E7F0BD000018
:10485000A00200202DE9FF5F1D460C468A4658073E
:1048600000D0012000EBD500690810FB01F0203AD0
:1048700000F0FF09D0B20026DFF8A4B002904BE0B0
:104880000C2D11D0102D14D0182D17D0202D45D15E
:104890002449029801EBC0104FF00008875D3806EC
:1048A00013D52148026814E00298204900EB40002B
:1048B00008E01F49029801EB0010EDE702981D493E
:1048C00000EBC00001EB8000E6E70E9828B916481F
:1048D000426821460098FDF7EFFB7806070E641C3E
:1048E000BBF80200A4B2A04218D9A4EB0A00A84267
:1048F00009D100985446401C80B20090BBF80010CB
:1049000081420BD906E008F1010000F0FF08B8F180
:10491000080FC4D3761CF6B24E45B1D3BDE8FF9F55
:10492000A0020020F876000814000020385F00087C
:10493000AC6300089C6900082DE9F84F044600F0BC
:10494000FF0910190D46DDE90AB61FFA80F858195B
:1049500087B24FF0000A12E0444503D305EB0B0089
:104960004C4685B2BD420FD25B4629462046CDF863
:1049700000A0FFF76FFF04EB5B0084B2761C327877
:10498000A2F120005E28E7D9BDE8F88F01B5BDF897
:104990000000ADF80000BDF800000149088008BD26
:1049A0000000086001B5BDF80000ADF80000BDF8DA
:1049B00000000149088008BDFEFF07600248034966
:1049C0000089088070470000A0020020FEFF0760F9
:1049D000024A1080901C018070470000FEFF0760B3
:1049E00008B500900548018BC08A491E8BB2401E55
:1049F00082B20021084600F043F808BD58030020A9
:104A000000B58DB008230992049000930691684682
:104A1000FCF74AFA002800D001200DB000BD0000CC
:104A200007490A464875938812889BB292B220B112
:104A3000012801D1CA820B837047CB820A83704759
:104A400058030020F0B50C4B95B21E46DFF82CC081
:104A50003468F269367D5F7D5CF8266027B104FB1F
:104A600001004243B552F0BD5B68181A401E04FBBA
:104A7000001050433552F0BD58030020840100203F
:104A80002DE9F843274DDDF8209000266C7D0CB110
:104A9000044606E06F680C46B91A1A463B1A491ECE
:104AA0005B1E286895F814C0DFF87C80171BC21BBA
:104AB00058F82CC0ED6900FB014005FB00C41B4801
:104AC000521E92B2056845F400050560006800F4C6
:104AD000000000901648056825F0010505604FF4B8
:104AE00040350560022545630264C463EA03591A30
:104AF00002EB0742491C11434164C0F83890016839
:104B000041F001010160290502E0761C8E4202D2CB
:104B100042689207F9D5816841F002018160BDE8E1
:104B2000F883000058030020840100203038024040
:104B300000B002402DE9FF4700F02CF98046012625
:104B40006E4CA0F586404FF4F07141F218094238DE
:104B500042D03204A8F5E0434FF44870843B4DD076
:104B6000032197118C23A8F5E0454FF4B47A163D44
:104B700054D0A8F5E04C4FF4A065BCF1180C5BD004
:104B8000A8F5004CBCF1170C59D0C8450CD1C4E9AC
:104B90000050A3810A2020822081E081608261810F
:104BA00002215046FFF72CFF55482268564F0280DD
:104BB000616841800220E061524838604F4800251A
:104BC000A838524BC0E900358560C560C8453BD167
:104BD0004FF08053036138E04FF48870C4E900104F
:104BE000268166812820A0810820E081052121827C
:104BF0008203608204214FF49070D3E7C4E900017E
:104C0000268166812E20A0811720E081D22020827B
:104C10001620608203214FF4C670C3E74FF416706C
:104C2000C4E90070142020816181A381E081A0206B
:104C300020820C206082B3E7C4E90050B4E74FF44F
:104C40004070C4E90070AFE705612389A3F1010C4E
:104C5000C0F814C0B4F80AC0ACF1010840F8188FCD
:104C6000B4F80C804344A3F10108C0F80480B4F800
:104C70000E80C444ACF10108C0F80880A2F101081C
:104C80009844C0F80C80A1F10108E044C0F81080FD
:104C9000B4F8108042441A44521E4261628A1144A0
:104CA0006144491E81618577457705771348A838A7
:104CB000FBF722FF07200621CDE90205CDE90051CF
:104CC000FF2302220020396800F024F8A088002287
:104CD00080B200902088114683B2104600F048F858
:104CE0000020FFF79DFE0A482575C0F8946204B0C5
:104CF0004FF0FF30BDE8F047FFF772BE58030020C9
:104D0000A0020020000000C08401002000680140D3
:104D1000008040422DE9F0438DB0144614AA134E92
:104D200092E880130022009202923568019576681D
:104D3000CDE904434FEA0823CDE9067303964FEA11
:104D400009230DF1240E08938EE862008DF83220BD
:104D50008DF83120024605488DF830C06946A838E4
:104D6000FBF7A0FE0DB0BDE8F08300005803002063
:104D700070B51E46044603460548049DFBF7B0FF88
:104D800023462A463146BDE870400148FBF7D2BFB2
:104D9000B002002030B52A4887B00021026842F0F6
:104DA00040020260026802F040020592026842F48A
:104DB000807202600068234C00F4807005904020EF
:104DC000CDE90001012002900320039069462046AE
:104DD000FBF724FD84201C4D009069462846FBF714
:104DE0001DFD40212046FBF703FE04460421284612
:104DF000FBF7FEFD44EA400480212846FBF7F8FD5E
:104E000044EA8000C0B2062817D2DFE800F00307AA
:104E10000A0D101344F2423007B030BD47F284004F
:104E2000FAE747F21600F7E747F21800F4E748F20E
:104E30001600F1E741F21800EEE70020ECE7000071
:104E4000303802400018024000200240F0B50368EC
:104E50008C88DD68C5F30B452C442504882404EBBD
:104E6000C2141E5906F470461E5103680F68DE68AE
:104E7000C6F30B46761C3E442E431E5104688B89B4
:104E8000E568C5F30A052B441D048C2303EBC2130C
:104E9000E65806F47046E65004688F68E668C6F384
:104EA0000A06761C3E442E43E6509423046803EB26
:104EB000C213E55825F00705E55005680C69EC506C
:104EC00091F831300C7E1F0226069C24056804EB05
:104ED000C21491F8323055F804C04FF0000C45F878
:104EE00004C091F8305046EA03433D431D43036834
:104EF0001D519823046803EBC213E55825F0FF0504
:104F0000E55005684C69EC50A023046803EBC2131C
:104F1000E55840F20776B543E550D1E907452C4303
:104F20000568EC50AC23046803EBC213E55844F861
:104F300003C005684C6AEC500B698BB3012B32D06F
:104F4000042B32D0022B30D0032B2ED0072B2CD0A9
:104F50000123B024056804EBC2142E5906F0E026A4
:104F60002E51D1E90065AD1B0E8D5D435E43ED1CF6
:104F700045EA064305682B51B423046803EBC213CA
:104F8000E5586FF30A05E5500468C96AE150006806
:104F9000842101EBC211425842F001024250F0BD9F
:104FA000FFE70423D5E70323D3E70223D1E700007B
:104FB00070B586B014216846FBF75EF91D480025E0
:104FC000016841F080010160016801F080010591F4
:104FD000016841F002010160016801F002010591E0
:104FE000016841F0010101600068134E00F001000A
:104FF0000590012202213046FBF706FD08200090B3
:105000000E480124CDE9010469460D48FBF706FC72
:1050100002218DE83200039169463046FBF7FEFB22
:10502000002211460920FBF7D5FE0920FBF7C4FE3C
:1050300006B070BD3038024000040240000011107C
:10504000001C024010B586B000241748009401945B
:105050000294039404944FF080410594016041F25E
:105060008731C0E9011442F22731C0E90314846199
:10507000FCF76AFC08B1FBF799FA4FF480500090F6
:1050800069460948FCF798FC08B1FBF78FFA0494CD
:1050900004A905480594FCF70FFC002801D0FBF794
:1050A00085FA06B010BD00009001002010B58AB04E
:1050B000002407941C2168460894FBF7DDF8174884
:1050C000154901605921C0E9011440F2E731C0E9F6
:1050D00003148461FCF721FE08B1FBF767FA07941B
:1050E00007A90E480894FCF7E7FB08B1FBF75EFA46
:1050F0006020CDE900040220029008226946049451
:105100000648FCF7A2FD08B1FBF750FA0348FCF78C
:1051100073FD0AB010BD000000040040D001002063
:105120000C4810B50A4901604FF4E131416000219B
:1051300081600C22C160C0E904128161C161FCF789
:10514000A9FE002803D0BDE81040FBF72FBA10BD20
:105150000010014010020020FEE7FEE7704700004B
:1051600000B5164887B014490022C0E90012012199
:10517000816008211023C0E90313402343614FF4E9
:10518000C073C0E906320A0202624A0242628A021F
:1051900082620220CDE9000106210291CDE90310CF
:1051A0000590069069460548FCF742FA034800F06E
:1051B00007F807B000BD0000400100A07803002000
:1051C00010B5002301221146184600F021F84FF4D3
:1051D000FA7000F0B9FD002301220221184600F008
:1051E00017F8002308220321184600F011F84FF4A5
:1051F0000C7301220421002000F00AF8BDE81040E1
:1052000040F2AB210148FCF7A3BA0000780300206C
:105210001FB5002410B1012802D002E0102400E0E4
:105220000824CDE90014CDE902234FF480526946E9
:105230000348FCF79FFA002800D0012004B010BDFD
:10524000780300207047FBF7EBBB000070B592B00D
:1052500030216846FBF710F814210CA8FBF70CF876
:105260001F480025016841F080510160006800F08E
:10527000805011901B48016841F440410160006872
:10528000022400F44040119001200090000401909D
:105290008001CDE906400F260896D820CDE9090403
:1052A00004200B906846FCF715F808B172B6FEE7CB
:1052B000FBF7C2FD08B172B6FEE74FF4A050CDE98E
:1052C0000E504FF48050CDE90C64109005210CA8CD
:1052D000FBF714FF002801D072B6FEE712B070BDD4
:1052E00040380240007000400548016841F47001F8
:1052F000016003494FF0006080390860704700008A
:1053000088ED00E00148FCF7C3BB000090010020DD
:10531000F0B50268254C264D264E274F274B4FF0FF
:10532000804CA04209D0604507D0A84205D0B042C9
:1053300003D0B84201D0984204D122F0700E4A68DE
:1053400042EA0E02A0421BD0604519D0A84217D0F5
:10535000B04215D0B84213D0984211D0184DA8428F
:105360000ED0184DA8420BD0174DA84208D0174DAB
:10537000A84205D0164DA84202D0164DA84203D12E
:1053800022F44075CA682A434D6922F080022A43FC
:1053900002608A68C2620A688262A04201D09842B2
:1053A00001D10969016301214161F0BD00000140A3
:1053B0000004004000080040000C004000040140D0
:1053C00000400140004401400048014000180040F6
:1053D000001C00400020004010B5846842EA03220F
:1053E00024F47F440A432243826010BD826822F085
:1053F00070020A4342F0070181607047F0B5026A0B
:1054000022F001020262036A42688469124E24F0AB
:1054100073050C682C4323F002058B682B430D4D5C
:10542000A84201D0B04205D123F00807CB683B4326
:1054300023F00403A84201D0B04205D14D6922F403
:10544000407215438A692A43426084614968416316
:105450000362F0BD0000014000040140F0B5026AA3
:1054600022F010020262026A436884690D6824F423
:10547000E64444EA05248D6822F0200242EA05123F
:105480000F4D104EA84201D0B04206D1CF6822F095
:10549000800242EA071222F04002A84201D0B04244
:1054A00007D14D6923F4406343EA85038D6943EADC
:1054B000850343608461496881630262F0BD000036
:1054C0000000014000040140F0B5026A22F480723D
:1054D0000262026A4368C46922F4007224F0730510
:1054E0000C68124E2C438D6842EA05220E4DA842EC
:1054F00001D0B04206D1CF6822F4006242EA07220E
:1055000022F48062A84201D0B04207D14D6923F451
:10551000405343EA05138D6943EA05134360C461B0
:105520004968C1630262F0BD00000140000401400F
:1055300030B5026A22F480520262046A4268C3698A
:105540000D6823F4E64343EA05238D6824F40054F0
:1055500044EA0534084DA84202D0084DA84204D1BF
:105560004D6922F4804242EA85124260C361496873
:105570000164046230BD00000000014000040140ED
:1055800010B5036A046A24F001040462846924F0FB
:10559000F00444EA021423F00A020A43846102621E
:1055A00010BD10B5036A23F0100303628369046A17
:1055B00023F4704343EA023224F0A00343EA0111CA
:1055C0008261016210BD10B5806B0021C185C1846C
:1055D000FCF7D5FB10BD0168CA6822F49072CA605E
:1055E00001684A6922F001024A61202180F83A10DC
:1055F000704710B590F83A10222901D0022010BD52
:105600008168B1F5805F11D00169002901681FD060
:10561000496801F07F03816A4A1C82620B70C18D68
:10562000491E0904090CC18518D02BE00269816A62
:10563000002A0268526805D0D2B20A80816A491CE9
:105640008162ECE7C2F308020A80816A891CF7E7ED
:105650004A68816A4B1C83620A70E0E70168CA6885
:1056600022F02002CA600168CA6822F48072CA600F
:1056700001684A6922F001024A61202180F83A104B
:10568000FCF778FC002010BD2DE9F04104460068CD
:105690000169E26821F44051114301612169A06868
:1056A000E26908436169114308432168CA6849F205
:1056B0000C639A430243CA6020684169A26921F4DD
:1056C000407111434161E069192764253226B0F524
:1056D000004F354A354920684FF0000806D088420F
:1056E00001D0904236D1FBF7B3FD35E0884201D0BE
:1056F000904202D1FBF7ACFD01E0FBF799FD616838
:105700004A18A0FB070148EB0803FAF76BFD0146B6
:10571000B0FBF5F00201B1FBF5F06FF01803584350
:1057200001EB800006EBC000B0FBF5F000F0F800E4
:1057300002EB4002B1FBF5F0584301EB800006EBB1
:10574000C000B0FBF5F000F007002168104488604D
:10575000BDE8F081FBF76CFD61688B0F8A00A0FB50
:105760000701FAF73FFD0146B0FBF5F06FF01802B4
:10577000504301EB800006EB0010B0FBF5F000F0A9
:10578000F002B1FBF5F002EB0012B1FBF5F06FF0A7
:105790001803584301EB800006EB0010B0FBF5F056
:1057A00000F00F00D1E7000000140140001001409C
:1057B00090F83910212901D0022070478168B1F595
:1057C000805F016A0BD04A1C02620268097851604E
:1057D000C18C491E0904090CC1840ED017E0098848
:1057E0000268C1F30801516001690029016A02D011
:1057F000491C0162ECE7891CFBE70168CA6822F0DA
:105800008002CA600068C16841F04001C1600020A8
:10581000704700000148FCF7B3BA000010020020F6
:10582000FEE700000FB4054B10B503A9044A029827
:1058300000F03CF810BC5DF814FB00007D5D000832
:105840008C0100200FB4084B10B504A902AA0398DC
:1058500000F02CF8044602A9002000F058FA204677
:1058600010BC5DF814FB00000F5D00080907090E6D
:10587000002804DB00F1E02080F80014704700F0FD
:105880000F0000F1E02080F8141D704702E008C806
:10589000121F08C1002AFAD170477047002001E0AA
:1058A00001C1121F002AFBD1704700002DE9FF4FF4
:1058B0008DB00F460546002606E025280BD0DDE911
:1058C0000F1290476D1C761C28780028F5D111B076
:1058D0003046BDE8F08F0024A246A1460122EC49E3
:1058E00000E0044315F8013F203B02FA03F00842B0
:1058F000F7D128782A2810D06FF02F022878A0F14D
:105900003001092914D80AEB8A0102EB410144F065
:10591000020400EB010A6D1CF0E701CF5FEA000A08
:1059200003D544F40054CAF1000A44F002046D1C8B
:1059300028782E2817D115F8010F44F004042A28DE
:105940000ED06FF02F022878A0F1300109290AD873
:1059500009EB890102EB410100EB01096D1CF2E743
:1059600057F8049B6D1C28786C280FD006DC4C2857
:1059700017D068280DD06A2814D104E0742810D0FC
:105980007A280FD10DE044F400140AE044F48014A6
:1059900001E044F440146978814202D104F5801496
:1059A0006D1C6D1C2A786E2A1FD00CDC632A31D046
:1059B00004DC002A8BD0582A11D1A3E0642A68D0D5
:1059C000692A0CD165E0732A2ED004DC6F2A73D0CB
:1059D000702A04D19BE0752A6FD0782A6ED01046C9
:1059E000DDE90F129047761C50E1C4F30250022803
:1059F00006D0032809D0042801CF09D0066045E16C
:105A000001CFF117C0E9006140E101CF06803DE11F
:105A100006703BE117F8040B8DF8000000208DF8AC
:105A20000100EB46012003E057F804BB4FF0FF30C4
:105A300061074FF0000102D40DE008F10101884632
:105A400049450FDA8045F8DB1BF808100029F4D12E
:105A500008E008F1010188468142FADB1BF80810D2
:105A60000029F6D1DDE90F23AAEB08008146214683
:105A700000F036F9304400EB080604E0DDE90F12CF
:105A80001BF8010B9047B8F10108F7D221464846B0
:105A9000F7E00A21C4F302534FF0000B0891022BE8
:105AA00004D001CFC117032B09D00AE0FF1D27F056
:105AB0000707F7E8020108E032E01FE020E000B24B
:105AC000C117042B01D140B2C117031E71F10003AD
:105AD00007DA4FF0000CD0EB0C006CEB01012D232A
